:040000000128FE2FA6
:1008B80022008E1161309324FF309324F3007308D3
:1008C800F40022008E157408080011341234133411
:1008D8001434153416340A340B340C340D340E34F5
:1008E8000F34103424009512A32424001512141771
:1008F8009413F030950520009111240095160800F6
:100908002730F9007908FA007030F9007908FB00FF
:100918000230F9007908F3007A30FD240800F1006C
:100928007108240091002000911D972C24001108C3
:10093800F0007008F20020009111720808002100F0
:100948008E110E100E118E148C168C100E120C15A2
:10095800951324008C160C15103022009D002300DE
:100968008C018E010800FF307005F400033071051A
:10097800F5007508F3007408F200F336F20CF3364C
:10098800F20C72082C0098007408033997000800CC
:1009980021000C152C0099017F3020009B0077085E
:1009A800F1007608F000B7242000911004309C0074
:1009B800911CDC2C21000C11D0302C00990008006F
:1009C800FB007B082000A000A101A2012008F00084
:1009D8002108F1002208F2008E30A3002308F3005A
:1009E800F401B8257008F8007108F9007208FA00D7
:1009F8000800F80022008E11F70173087702031827
:100A0800152D77087807F400740886008701010817
:100A18009324F5007508F6000130F4007408F70710
:100A2800012D22008E1508007624FF30F6000030D4
:100A3800F700CC245E2522000E1620008C1A212DEA
:100A480022000E125C24FC007C082000D4008424C0
:100A580020005408E42478082000A7007908A8009A
:100A68007A08A9000030A4004830A5004230A6004A
:100A7800A32620002408B7002508B8002608B900D6
:100A8800C030B4007F30B5004430B6004B2720009A
:100A98003408C4003508C5003608C6001C262000E6
:100AA8004508D3004408D2005308F1005208F0006A
:100AB800B7241F2D22000E120630F9003030890BA2
:100AC800632DF90B632D003222008E153430F900A6
:100AD800F230890B6D2DF90B6D2D2030F900790856
:100AE800FA003B30F9007908FB000230F900790878
:100AF800F3007A30FD242130F9007908FA00FB016F
:100B0800FB0A0230F9007908F3007A30FD2422301C
:100B1800F9007908FA00FB01FB0A0230F9007908AC
:100B2800F3007A30FD2469308400843085000008A1
:100B38001F392038F9007908FA00FB01FB0A023056
:100B4800F9007908F3007A30FD242330F900790898
:100B5800FA000330F9007908FB000230F90079083F
:100B6800F3007A30FD24080073080319C02D7208B9
:100B780071047004031DD12D0030F0000030F10025
:100B88000030F20008000130F5007508F307013065
:100B9800F236F10CF00C890BCC2DFE3072050319DE
:100BA800EA2DC72D0130F5007508F3070130F0076D
:100BB800003003180130F107003003180130F20744
:100BC8000130F236F10CF00C890BE52DFF3072057F
:100BD8000319F72DD62D0130F3020130F035F10D50
:100BE800F20D890BF22DF11BFD2D02307302031853
:100BF800EF2D7318052EFF30F0057F30F105FF301B
:100C0800F2050310F30C7308F500F601F701103034
:100C1800F535F60DF70D890B0C2E7508F0047608DE
:100C2800F1047708F204740803190800F2170800A1
:100C380020004408C8004508C9004608CA00031037
:100C4800490D4A0DCB004B08D1005108031D352E24
:100C58000030C7000030C6000030C5000030C400B6
:100C680008004408C8004508C9004608CA001730EB
:100C7800CA36C90CC80C890B3C2E4808CB004B0857
:100C8800CC00C517FF30C405FF30C5050030C605C8
:100C98004408CD004508CE004608CF00D0018E306C
:100CA800D102D11F732E5108803A8F3E0318652E4A
:100CB8000030C7000030C6000030C5000030C40056
:100CC80008000130D036CF0CCE0CCD0C890B662E27
:100CD8000130C8004808D10703198C2E652E18303A
:100CE8005102031C892E0030C7000030C6000030B6
:100CF800C5000030C40008000130CD35CE0DCF0D41
:100D0800D00D890B812E0130D1025108031D802E90
:100D18004C0803199A2ECD09CE09CF09D009CD0A5E
:100D28000319CE0A0319CF0A0319D00A5008C700BD
:100D38004F08C6004E08C5004D08C4000800200032
:100D48002708AA002808AB002908AC0003102B0DBF
:100D58002C0DAD002D08B2003208031DBA2E00304C
:100D6800A4000030A5000030A60008002408AA004E
:100D78002508AB002608AC0003102B0D2C0DAD0088
:100D88002D08B3003308031DD02E0030A400003016
:100D9800A5000030A60008000030AF000030B00009
:100DA8000030B10089303307AA002A08B2022708A8
:100DB800AA002808AB002908AC001030AC36AB0CF0
:100DC800AA0C890BE22E2A08AD002D08B3002408CE
:100DD800AA002508AB002608AC001030AC36AB0CD6
:100DE800AA0C890BF22E2A08AD002D08B306803014
:100DF800AA002A08B305A817FF30A705FF30A805E1
:100E08000030A905A517FF30A405FF30A50500305F
:100E1800A6051830AA002A08AE000130AF35B00D7B
:100E2800B10D890B122F26082902031D212F250831
:100E38002802031D212F24082702031C2A2F240817
:100E4800A7022508A83B2608A93B2F140130A7357F
:100E5800A80DA90D890B2B2F0130AE02031D112FF0
:100E68002F08F0003008F1003108F2003208AA001B
:100E78002A08F3003308AB002B08F400B8257008E3
:100E88002000A4007108A5007208A6000800200030
:100E98003408BA003508BB003608BC0003103B0D07
:100EA8003C0DBD003D08BE003E08031D622F00300A
:100EB800B4000030B5000030B60008003708BA00AA
:100EC8003808BB003908BC0003103B0D3C0DBD00C1
:100ED8003D08C3004308031D782F0030B4000030DC
:100EE800B5000030B600080043087B3EBA003A0857
:100EF800BE073408BA003508BB003608BC001030FD
:100F0800BC36BB0CBA0C890B842F3A08BD003D08CF
:100F1800C3003708BA003808BB003908BC001030D5
:100F2800BC36BB0CBA0C890B942F3A08BD003D089F
:100F3800C3068030BA003A08C305B517B817FF30A2
:100F4800B705FF30B8050030B9050030BF000030E4
:100F5800C0000030C1000730BA003A08C200341C93
:100F6800BB2F3708BF073808C03D3908C13D0130DD
:100F7800B636B50CB40C890BBC2F0130B735B80D9B
:100F8800B90D890BC22F0130C202031DB32F0930DE
:100F9800BA003A08C200341CD72F3708BF073808F0
:100FA800C03D3908C13D0130B636B50CB40C890BCB
:100FB800D82F0130C136C00CBF0C890BDE2F013091
:100FC800C202031DCF2F3F08F0004008F10041087E
:100FD800F2003E08BA003A08F3004308BB003B0899
:100FE800F400B82570082000B4007108B500720834
:080FF800B60008002000182DCE
:020000040001F9
:04000E00E4F9FFDF33
:00000001FF
